:100000000C94050D0C942D0D0C942D0D0C942D0DB0
:100010000C942D0D0C942D0D0C942D0D0C942D0D78
:100020000C942D0D0C942D0D0C94C71A0C94831A5E
:100030000C94EF210C942D0D0C942D0D0C942D0D82
:100040000C942D0D0C942D0D0C942D0D0C942D0D48
:100050000C942D0D0C94A11B0C942D0D0C942D0DB6
:100060000C942D0D0C942D0D0C942D0D0C942D0D28
:100070000C942D0D0C942D0D0C942D0D0C942D0D18
:100080000C942D0D0C942D0D0C942D0D0C942D0D08
:100090000C942D0D0C942D0D0C942D0D0C942D0DF8
:1000A0000C942D0D0C942D0D0C942D0D0501098033
:1000B000A101850319012AB700150126B700950192
:1000C00075108100C0050C0901A101850419012AE0
:1000D000A002150126A002950175108100C00660DE
:1000E000FF0961A1010962150026FF00952075082E
:1000F00081020963150026FF00952075089102C052
:1001000005010906A101050719E029E715002501E8
:10011000950875018102950175088101050719008F
:1001200029FF150026FF00950675088100050819AE
:10013000012905950575019102950175039101C08D
:1001400000000000000000000000000000000000AF
:10015000000000000000000000000000000000009F
:10016000000000000000000000000000000000008F
:10017000000000808000000000008040402020201F
:1001800020101010100804020101020C3040800001
:10019000000000000000F8F8F8F8000000000080FF
:1001A00080000000000000000000000000000000CF
:1001B00000000000000000000000000000808080BF
:1001C000000000000000000000000000000000002F
:1001D000000000000000000000000000000000001F
:1001E000000000000000000000000000000000000F
:1001F000001EE10000010102028180800000808079
:10020000000000000000000000800030300000010D
:100210000102040810204387070100B8BCBE9F5F9D
:100220005F4F4C20202020101010100808080808EC
:10023000040404040402020202010101010000009E
:1002400000000000000000000000000000000000AE
:10025000000000000000000000000000000000009E
:10026000000000000000000000000000000000008E
:1002700080700C030000180605989984437C414166
:100280004040202122121111110908080808040415
:1002900008081010101010110F013D7CFCFCFCFC34
:1002A000FC3C0C000000000000000000000000000A
:1002B000000000000000000000000000000000003E
:1002C000000000000000000000000000000000002E
:1002D00000808080808040404040402020202020BE
:1002E0001010101010080808080804040404040280
:1002F00003020201010101010100000000000000F1
:1003000000000000000000000000000000000000ED
:1003100000000000000000000000000000010303D6
:1003200000000000000000000000000000000000CD
:1003300000000000000000000000000000000000BD
:1003400000000000000000000000000000000000AD
:10035000000000000000000000000000000000009D
:10036000000000000000000000000000000000008D
:10037000000000808000000000008040402020201D
:1003800020101010100804020101020C30408000FF
:10039000000000000000000000000000000000005D
:1003A000000000000000000000000000000000004D
:1003B00000000000000000000000000000808080BD
:1003C000000000000000000000000000000000002D
:1003D000000000000000000000000000000000001D
:1003E000000000000000000000000000000000000D
:1003F000001EE100000101020201000000008080F7
:10040000000000000000000000800030300000010B
:10041000E11A06093135018A7C0000808080804025
:100420004040402020202010101010080808080824
:10043000040404040402020202010101010000009C
:1004400000000000000000000000000000000000AC
:10045000000000000000000000000000000000009C
:10046000000000000000000000000000000000008C
:1004700080700C030000000000000000000001017B
:100480000040A021221211111109080808080404D3
:100490000404040402020201010101000000000042
:1004A000000000000000000000000000000000004C
:1004B000000000000000000000000000000000003C
:1004C000000000000000000000000000000000002C
:1004D00000808080808040404040402020202020BC
:1004E000101010101008080808080404040404027E
:1004F000037A7A7979797939310202040408080893
:1005000088888780000000000000000000000000D4
:1005100000000000000000000000000000000000DB
:1005200000000000000000000000000000000000CB
:1005300000000000000000000000000000000000BB
:1005400000000000000000000000000000000000AB
:10055000000000000000000000000000000000009B
:10056000000000000000000000000000000000008B
:10057000000000808000000000008040402020201B
:1005800020101010100804020101020C30408000FD
:10059000000000000000000000000000000000005B
:1005A000000000000000000000000000000000004B
:1005B00000000000000000000000000000808080BB
:1005C000000000000000000000000000000000002B
:1005D000000000000000000000000000000000001B
:1005E000000000000000000000000000000000000B
:1005F000001EE10000010102028180800000808075
:100600000000000000000000008000303000000109
:10061000E11A06093135018A7C0000808080804023
:100620004040402020202010101010080808080822
:10063000040404040402020202010101010000009A
:1006400000000000000000000000000000000000AA
:10065000000000000000000000000000000000009A
:10066000000000000000000000000000000000008A
:1006700080700C030000180605989984C37C4141E2
:100680004040202122121111110908080808040411
:100690000404040402020201010101000000000040
:1006A000000000000000000000000000000000004A
:1006B000000000000000000000000000000000003A
:1006C000000000000000000000000000000000002A
:1006D00000808080808040404040402020202020BA
:1006E000101010101008080808080404040404027C
:1006F00003020201010101010100000000000000ED
:1007000000000000000000000000000000000000E9
:1007100000000000000000000000000000000000D9
:1007200000000000000000000000000000000000C9
:1007300000000000000000000000000000000000B9
:1007400000000000000000000000000000000000A9
:100750000000000000000000000000000000000099
:100760000000000000000000000000000000000089
:100770000000000000000000000080404020202019
:1007800020101010101008080404040830408000E5
:100790000000000000000000000000000000000059
:1007A0000000000000000000000000000000000049
:1007B00000000000000000000000000000808080B9
:1007C0000000000000000000000000000000000029
:1007D0000000000000000000000000000000000019
:1007E0000000000000000000000000000000000009
:1007F00000186482020202020201000000008080F0
:100800000000000000000000008000303000C0C187
:10081000C1C2040810204080000000808080804019
:100820004040402020202010101010080808080820
:100830000404040404020202020101010100000098
:1008400000000000000000000000000000000000A8
:100850000000000000000000000000000000000098
:100860000000000000000000000000000000000088
:10087000C0380403000000000000000C0C0C0D0147
:100880000040A021221211111109080808080404CF
:1008900008081010101010110F01010000000000D6
:1008A0000000000000000000000000000000000048
:1008B0000000000000000000000000000000000038
:1008C0000000000000000000000000000000000028
:1008D00000808080808040404040402020202020B8
:1008E000101010101008080808080404040404027A
:1008F00003020201010101010102020404080808C7
:1009000008080700000000000000000000000000D0
:1009100000000000000000000000000000000000D7
:1009200000000000000000000000000000000000C7
:1009300000000000000000000000000000000000B7
:1009400000000000000000000000000000000000A7
:100950000000000000000000000000000000000097
:100960000000000000000000000000000000000087
:100970000000000000000000000080404020202017
:1009800020101010101008080404040830408000E3
:100990000000000000000000000000000000000057
:1009A0000000000000000000000000000000000047
:1009B00000000000000000000000000000808080B7
:1009C0000000000000000000000000000000000027
:1009D0000000000000000000000000000000000017
:1009E0000000000000000000000000000000000007
:1009F00000186482020202020201000000008080EE
:100A00000000000000000000008000303000C0C185
:100A1000C1C2040810204080000000808080804017
:100A2000404040202020201010101008080808081E
:100A30000404040404020202020101010100000096
:100A400000000000000000000000000000000000A6
:100A50000000000000000000000000000000000096
:100A60000000000000000000000000000000000086
:100A7000C0380403000000000000000C0C0C0D0145
:100A80000040A021221211111109080808080404CD
:100A900008081010101010110F01010000000000D4
:100AA0000000000000000000000000000000000046
:100AB0000000000000000000000000000000000036
:100AC0000000000000000000000000000000000026
:100AD00000808080808040404040402020202020B6
:100AE0001010101010080808080804040404040278
:100AF00003020201010101010102020404080808C5
:100B000008080700000000000000000000000000CE
:100B100000000000000000000000000000000000D5
:100B200000000000000000000000000000000000C5
:100B300000000000000000000000000000000000B5
:100B400000000000000000000000000000000000A5
:100B50000000000000000000000000000000000095
:100B60000000000000000000000000000000000085
:100B700000000000000000000000008080404040B5
:100B80004020202020100804020204186080000089
:100B90000000000000000000000000000000000055
:100BA0000000000000000000000000000000000045
:100BB00000000000000000000000000000808080B5
:100BC0000000000000000000000000000000000025
:100BD0000000000000000000000000000000000015
:100BE0000000000000000000000000000000000005
:100BF000003CC201010202040402010000000000E6
:100C00000000000000000000000000606000818221
:100C10008284081020408000000000808080804096
:100C2000404040202020201010101008080808081C
:100C30000404040404020202020101010100000094
:100C400000000000000000000000000000000000A4
:100C50000000000000000000000000000000000094
:100C60000000000000000000000000000000000084
:100C700080701906000000000000001818181B03FF
:100C80000040A02224141212120B080808080505BF
:100C900009091010101010110F01010000000000D0
:100CA0000000000000000000000000000000000044
:100CB0000000000000000000000000000000000034
:100CC0000000000000000000000000000000000024
:100CD00000808080808040404040402020202020B4
:100CE0001010101010080808080804040404040276
:100CF00003020201010101010102020404080808C3
:100D000008080700000000000000000000000000CC
:100D100000000000000000000000000000000000D3
:100D200000000000000000000000000000000000C3
:100D300000000000000000000000000000000000B3
:100D400000000000000000000000000000000000A3
:100D50000000000000000000000000000000000093
:100D60000000000000000000000000000000000083
:100D70000000008080000000000080404020202013
:100D800020101010100804020101020C30408000F5
:100D90000000000000000000000000000000000053
:100DA0000000000000000000000000000000000043
:100DB00000000000000000000000000000808080B3
:100DC0000000000000000000000000000000000023
:100DD0000000000000000000000000000000000013
:100DE0000000000000000000000000000000000003
:100DF000001EE100000101020201000000008080ED
:100E00000000000000000000008000303000C0C181
:100E1000C1C2040810204080000000808080804013
:100E2000404040202020201010101008080808081A
:100E30000404040404020202020101010100000092
:100E400000000000000000000000000000000000A2
:100E50000000000000000000000000000000000092
:100E60000000000000000000000000000000000082
:100E700080700C03000000000000000C0C0C0D0141
:100E80000040A021221211111109080808080404C9
:100E900008081010101010110F01010000000000D0
:100EA0000000000000000000000000000000000042
:100EB0000000000000000000000000000000000032
:100EC0000000000000000000000000000000000022
:100ED00000808080808040404040402020202020B2
:100EE0001010101010080808080804040404040274
:100EF00003020201010101010102020404080808C1
:100F000008080700000000000000000000000000CA
:100F100000000000000000000000000000000000D1
:100F200000000000000000000000000000000000C1
:100F300000000000000000000000000000000000B1
:100F400000000000000000000000000000000000A1
:100F50000000000000000000000000000000000091
:100F60000000000000000000000000000000000081
:100F70000000000000000000000080404020202011
:100F800020101010100808040202020438408000EB
:100F90000000000000000000000000000000000051
:100FA0000000000000000000000000000000000041
:100FB00000000000000000000000000000808080B1
:100FC0000000000000000000000000000000000021
:100FD0000000000000000000000000000000000011
:100FE0000000000000000000000000000000000001
:100FF000001CE201010202020201000000008080E8
:101000000000000000000000008000303000C0C17F
:10101000C1C2040810204080000000808080804011
:101020004040402020202010101010080808080818
:101030000404040404020202020101010100000090
:1010400000000000000000000000000000000000A0
:101050000000000000000000000000000000000090
:101060000000000000000000000000000000000080
:1010700080700C03000000000000000C0C0C0D013F
:101080000040A021221211111109080808080404C7
:1010900008081010101010110F01010000000000CE
:1010A0000000000000000000000000000000000040
:1010B0000000000000000000000000000000000030
:1010C0000000000000000000000000000000000020
:1010D00000808080808040404040402020202020B0
:1010E0001010101010080808080804040404040272
:1010F00003020201010101010102020404080808BF
:1011000008080700000000000000000000000000C8
:1011100000000000000000000000000000000000CF
:1011200000000000000000000000000000000000BF
:1011300000000000000000000000000000000000AF
:1011400000DA0281FFD9F1DB20A4A62EAF00A0C0F7
:1011500000A1C800AED580A81FD300408D14200088
:10116000FD377A585A000004E6D6B4460200210141
:1011700016000000742FE5A3E0013E009D5D003DD8
:10118000888986D3DC0AE842C324925842588FD813
:10119000E75CA0D2616E26E888019A676C7887BC0C
:1011A0008D3709EA2F54C1A53C7985897C2969B915
:1011B0008F7792E5A65B868CA6AA91F9B95CB3C538
:1011C000C2123CA257AA1899B8A30E161AE0A5CAD3
:1011D00009C6CA34C9FF921AAF1CE0FF439A478977
:1011E000C9DE184C901253ADF5B47D9CD5B9DD9293
:1011F0004BC8FF6A7C81B22703BBC2CD432347851E
:1012000093FD9CE61C18B64EE77184EC8F2A5CA611
:1012100088649841EAD52DEB2CE75CAE0000000015
:101220001446B98A56192DE20001B901BF02000027
:1012300072356585B1C467FB020000000004595A8D
:10124000AB00AC000000000000000000AE00530046
:1012500054005500560005005F0060006100570013
:1012600006005C005D005E000000070059005A00A7
:101270005B005800080062000000630000000900E5
:1012800000AF00AE09025B00030100A0FA090400F0
:1012900000010301010009211101000122400007A2
:1012A0000581030800010904010002030000000990
:1012B00021110100012222000705820320000107FD
:1012C00005030320000109040200010300000009D6
:1012D00021110100012232000705840320000112C0
:1012E00001000200000008EDFE00000300010203FF
:1012F000011C037600690061006C003A006600364C
:101300000034006300320062003300630000000616
:10131000033400320000000E036E0067006C0067AB
:10132000007A007A000000040309040000000000B5
:1013300000000000000000000000000000000000AD
:101340000000000000000000000000000000007E1F
:101350000F00D4FFFFFFC70000007800000000006E
:101360000000002A2B280000000000000000000000
:1013700000000000000029000000002C1E34202185
:101380002224342627252E362D3738271E1F2021CC
:1013900022232425263333362E37381F040506072B
:1013A00008090A0B0C0D0E0F101112131415161745
:1013B00018191A1B1C1D2F3130232D350405060763
:1013C00008090A0B0C0D0E0F101112131415161725
:1013D00018191A1B1C1D2F3130354C07087F0807C0
:1013E000003E5B4F5B3E003E6B4F6B3E001C3E7C05
:1013F0003E1C00183C7E3C18001C577D571C001CEE
:101400005E7F5E1C0000183C180000FFE7C3E7FF8A
:1014100000001824180000FFE7DBE7FF0030483A1F
:10142000060E00262979292600407F050507004081
:101430007F05253F005A3CE73C5A007F3E1C1C08B4
:1014400000081C1C3E7F0014227F2214005F5F00F6
:101450005F5F0006097F017F00006689956A006072
:10146000606060600094A2FFA2940008047E0408FB
:101470000010207E20100008082A1C0800081C2AE2
:101480000808001E10101010000C1E0C1E0C00305E
:10149000383E383000060E3E0E0600000000000008
:1014A0000000005F000000000700070000147F1428
:1014B0007F1400242A7F2A12002313086462003656
:1014C0004956205000000807030000001C2241007C
:1014D000000041221C00002A1C7F1C2A0008083E34
:1014E00008080000807030000008080808080000A4
:1014F00000606000002010080402003E5149453E93
:101500000000427F4000007249494946002141499C
:101510004D33001814127F10002745454539003C13
:101520004A494931004121110907003649494936E4
:1015300000464949291E0000001400000000403404
:1015400000000000081422410014141414140000B8
:1015500041221408000201590906003E415D594E1E
:10156000007C1211127C007F49494936003E4141FE
:101570004122007F4141413E007F49494941007F6E
:1015800009090901003E41415173007F0808087FA5
:101590000000417F4100002040413F01007F0814CE
:1015A0002241007F40404040007F021C027F007FBC
:1015B0000408107F003E4141413E007F09090906B1
:1015C000003E4151215E007F091929460026494904
:1015D00049320003017F0103003F4040403F001FAC
:1015E0002040201F003F4038403F00631408146330
:1015F000000304780403006159494D4300007F4112
:10160000414100020408102000004141417F0004D4
:10161000020102040040404040400000030708006F
:10162000002054547840007F284444380038444413
:10163000442800384444287F00385454541800008B
:10164000087E09020018A4A49C78007F080404788E
:101650000000447D4000002040403D00007F1028F5
:1016600044000000417F4000007C04780478007C46
:101670000804047800384444443800FC1824241832
:101680000018242418FC007C080404080048545462
:1016900054240004043F4424003C4040207C001CAF
:1016A0002040201C003C4030403C0044281028448E
:1016B000004C9090907C004464544C4400000836E8
:1016C00041000000007700000000413608000002E1
:1016D00001020402003C2623263C0000000000001A
:1016E00000404040F0F8F8FF38FFF8F83FF8F8FF06
:1016F00038FFF8F8F040404000000000000080C0D3
:10170000C0C0800000C0C08000000080C0C000C019
:10171000C0000080C0C00000000000C0C0C0C0C049
:1017200000C0C00000000000000000000000000039
:1017300000000000000000000000000000000000A9
:101740000000000000000000000000000000000099
:1017500000000000000000000000C0F0F8FC3E1E89
:1017600006010000007F4141417F007F4141417FF0
:10177000000080C0E07E5B4F5BFEC00000C000DC6C
:10178000D7DEDEDED7DC00C0000000000000000075
:101790000000000000000000000000000000000049
:1017A00000494949FFFFFFFFE0DFBFBF00BFBFDFC8
:1017B000E0FFFFFFFF49494900000000001F3F60B4
:1017C00060E0BF1F007F7F071E381E077F7F007FFE
:1017D0007F0E1F3B716000000000007F7F0C0C0C2F
:1017E000007E7E007F7E0303007F7E03037E7E03F8
:1017F000037F7E000F3E703C063C703E0F00327B44
:1018000049493F7E007F7E0303001E3F69696F26C2
:1018100000000000000000000000030F1F3F3C78A4
:1018200070600000007F4141417F007F4141417F66
:1018300000307B7F7830202030787F3B0003000F22
:101840007F0F0F0F7F0F000300000000000000005B
:101850000000000000000000000000000000000088
:1018600000010101070F0F7F0F7F0F0F7E0F0F7F0A
:101870000F7F0F0F070101010000000000000000B2
:101880000000010100000000000000000000000056
:101890000000000000000000000000000000000048
:1018A0000000000000000000000000000000000038
:1018B0000000000000000000000000000000000028
:1018C0000000000000000000000000000000000018
:1018D0000000000000000000000000000000000008
:1018E00000000000000000000000000000000000F8
:1018F00000000000000000000000000000000000E8
:1019000000000000000000000000000000000000D7
:10191000000000000000000000000041542B424C79
:1019200045484944434F4E54524F4C4B45593D3026
:1019300078253034780041542B424C454B45594270
:101940004F415244434F44453D253032782D30308D
:101950002D253032782D253032782D253032782DD6
:10196000253032782D253032782D253032780041DF
:10197000542B474150474554434F4E4E0041542B42
:101980004556454E54454E41424C453D3078320017
:1019900041542B4556454E54454E41424C453D30F1
:1019A000783100FF19C819EE19E019AF19C41941AF
:1019B000542B424C45504F5745524C4556454C3D93
:1019C0002D31320041545A0041542B474150494E69
:1019D00054455256414C533D31302C33302C2C0061
:1019E00041542B424C45484944454E3D31004154F9
:1019F0002B4741504445564E414D453D3432004100
:101A000054453D30004F4B00F32D11241FBECFEF46
:101A1000DAE0DEBFCDBF11E0A0E0B1E0E6EBF8E632
:101A200002C005900D92AE38B107D9F726E0AEE8B6
:101A3000B1E001C01D92AC32B207E1F71DE0C5E094
:101A4000DDE004C02197FE010E945130C430D1076F
:101A5000C9F70E9466220C9441340C940000CF9385
:101A6000DF934091840450918504445852409A0178
:101A70003E5F21303240C0F020E032E0241B350BC5
:101A80006091820270918302FC01CA01240F351F0C
:101A9000C1E0D0E08217930750F070938302609307
:101AA0008202DF91CF91089520E032E0E9CF4491A6
:101AB000DC01AC57BD4F5C91451781F04C93AC01F4
:101AC000A5E056954795AA95E1F7DE0102C0AA0F59
:101AD000BB1F4A95E2F7AD016A2B752B0196319633
:101AE000D9CFE8EDF0E080818E7F80831092E20014
:101AF0001092DA001092E100A0EEB0E08C918160CB
:101B00008C9380818F77808319BCA7EDB0E08C9196
:101B10008E7F8C9380818F7E8083109260020895E7
:101B20002091E4003091E50095E6A9012091EC00B8
:101B3000822F817020FF06C08091E80080FF06C0E0
:101B400080E008952091E80022FD1AC080916D0286
:101B5000882389F0853089F08091EB0085FD0FC0E6
:101B60002091E4003091E50042175307F9F29150BB
:101B7000E1F684E0089582E0089583E0089581E02D
:101B80000895EF92FF920F931F93CF937C018B01E7
:101B90000E94900DC82F811117C08091E80085FD2B
:101BA0000BC08091E8008E778093E8000E94900D32
:101BB000882399F3C82F08C0F70181917F01809392
:101BC000F1000150110949F78C2FCF911F910F910E
:101BD000FF90EF90089580916F0287FF13C080916E
:101BE000E80082FF06C08091E8008B778093E800D0
:101BF00004C080916D028111F2CF089580916D0231
:101C00008823D9F38091E80080FFF8CF8091E80025
:101C10008E77ECCF982F9093E900242F762F50E009
:101C2000891731F07091EC002091ED005091F00097
:101C300021FD07C09F5F973071F78093E90081E035
:101C400008953091EB003E7F3093EB003091ED0032
:101C50003D7F3093ED003091EB0031603093EB002D
:101C60007093EC002093ED005093F0002091EE0073
:101C700027FDE0CF80E00895B0E0A0E0E2E4FEE0E0
:101C80000C942430C8EDD0E088818F7E8883E7ED06
:101C9000F0E080818160808384E082BF81E0809376
:101CA000600288818E7F888302EE10E0F801108246
:101CB0001092DA0081EEC82ED12CF60110828881B4
:101CC0008F77888388818068888388818F7D8883E7
:101CD00019BC10926D0210926E0210926C0210925A
:101CE0006B0290EEE92EF12CF70180818B7F8083CF
:101CF00088818160888342E060E080E00E940A0E73
:101D0000F60180818E7F8083F801808181608083ED
:101D1000808188608083F70180818E7F80838881C5
:101D200080618883CDB7DEB7E8E00C944030FC01D9
:101D3000809175029091760286179707A0F0611541
:101D4000710529F49091E8009E779093E80090E067
:101D50006115710551F4911108C08091E80082FF6E
:101D600034C080E00895BC01F2CF80916D028823D9
:101D7000C1F18530C1F18091E80083FD30C08091D0
:101D8000E80082FDEACF8091E80080FFE1CF8091FA
:101D9000F3002091F200382F6115710519F02830F9
:101DA000310558F091E02830310509F090E020919C
:101DB000E8002E772093E800CBCF81918093F1004B
:101DC000615071092F5F3F4FE7CF80916D028823EB
:101DD00041F0853041F08091E80083FFBECF81E083
:101DE000089582E0089583E008950895089580910C
:101DF0006202089587E797E79093010880930008AF
:101E000088E19AE00FB6F894A895809360000FBE21
:101E100090936000FFCF2FB7F894609158027091B3
:101E2000590280915A0290915B022FBF08959C0144
:101E3000FC0132969FEF80E04191461751F09F3FA1
:101E400019F4411101C0982F8F5F8630A9F79F3F89
:101E500009F40895290F311D97FD3A95F901628320
:101E6000089520915602309157022817390771F0D2
:101E70009093570280935602E0915402F0915502DC
:101E8000309721F00084F185E02D09950895209187
:101E90005202309153022817390771F09093530280
:101EA00080935202E0915402F0915502309721F054
:101EB0000680F781E02D09950895E0915402F09194
:101EC0005502309729F00190F081E02D0995089591
:101ED00080E0089580E00895F894E82FE295EF708F
:101EE000F0E031A1282F2F7081E090E001C0880F31
:101EF0002A95EAF7982F9095932391A392A1892B85
:101F000082A3789408958238910591F1E8F58133A0
:101F1000910509F497C028F58932910509F487C025
:101F20008A32910509F495C0811520E5920708F0E1
:101F3000A6C0811540E4940708F021C18F3B9105AC
:101F400008F08EC0883A910508F00EC1853A9105D7
:101F500008F001C18430910528F58130910511F117
:101F600041C08533910509F45DC089339105E1F6DF
:101F70002091BE01237009F037C12091BF0123FFDA
:101F800011C089E290E00895833E910571F158F403
:101F9000803E9105E9F0823E910531F62091BE0127
:101FA00022FD1EC00895863E910551F1873E9105A0
:101FB00071F1843E910509F0B7CF2091BF0121FF57
:101FC000F1CF8091BE0184FD0DC087EE90E00895B1
:101FD0002091BE0120FD33C03091BF0130FFE2CF20
:101FE00024FFFCC090E080E0DDCF2091BE0122FD07
:101FF000F8C03091BF0130FDF7C024FFD3CFF2CF3E
:102000002091BE0123FFCECF24FDECCFDECF209167
:10201000BE0123FDECC03091BF0131FFEECF84EE55
:1020200090E008952091BE0125FFBCCFAACF20915A
:10203000BE0125FDDFC02091BF0123FFB3CF89E39F
:1020400090E008952091BE0126FFACCF8AE290E097
:1020500008952091BE0126FFA5CF81E390E0089569
:10206000803E910508F4BECF883E910508F49ACFD2
:102070009C013A9521153F4108F494CFB3CF8115C7
:1020800023E59207F8F4811542E5940708F07FC034
:10209000811521E5920708F075C0282F2695269511
:1020A000237040E2249F90011124482F437081E067
:1020B00090E002C0880F991F4A95E2F7822B932B7C
:1020C0009D680895811549E59407F0F4811528E588
:1020D000920708F070C0811544E5940708F082CF9C
:1020E000AC014370552721E030E002C0220F331FBE
:1020F0004A95E2F78695869540E2849FC0011124B7
:10210000822B932B9A68089581152AE5920708F08F
:1021100069CF282F2F704091BE0142FF05C083FF79
:102120004FC0282F277024603091BF0130FF07C0B7
:10213000322F3871383009F049C0277F216044FDC3
:10214000277E34E0969587953A95E1F78F70982F22
:10215000822F90690895855AE82FF0E0E65DFE4FE2
:10216000808190E090640895885AE82FF0E0EE0FA7
:10217000FF1FE35DFE4F80819181946408959F70FD
:10218000906A0895982F8827816F906A0895AC010E
:102190004370552721E030E002C0220F331F4A95DB
:1021A000E2F78695869540E2849FC0011124822B38
:1021B000932B9C680895982F8827806F906A0895C4
:1021C00082FFB2CF282F2B702860AECF322F317113
:1021D000313009F0B4CF2E7F2860B1CF83EE90E08C
:1021E000089582EE90E0089580EE90E0089586EEE6
:1021F00090E0089585E390E00895A82FA77023E06C
:10220000969587952A95E1F7FC01EE0FFF1FE80FE1
:10221000F91FE60FF71F50E040E080E0219130E029
:102220000A2E02C0369527950A94E2F721703327CB
:10223000042E01C0220F0A94EAF7822B4F5F5F4FF2
:102240004330510559F70895903FC9F0963080F416
:102250008530A8F4282F30E06EE971E0A901E5E0AF
:102260009E9F400D511D1124CA010E94FD1008952A
:102270009C5F923020F46BE971E090E0F6CF80E053
:102280000895262F277091E001C0990F2A95EAF74B
:1022900023E0769567952A95E1F7FB01EE0FFF1F86
:1022A000E60FF71FE40FF51F50E040E0682F70E0E5
:1022B0008191DF0111979B01042E02C0369527956D
:1022C0000A94E2F7217021952827292328272C93A7
:1022D0004F5F5F4F4330510559F70895282F862FE0
:1022E000903F79F0963070F4253058F4622F70E00A
:1022F00025E0929F600D711D11244EE951E00E946E
:10230000411108959C5F9230E0F7622F70E04BE935
:1023100051E0F5CF9C013A9521153F4150F5FC0164
:10232000EE27F170BC0166277270AC01442754702F
:102330009C012227387094FF0EC080E1EF2B09F436
:1023400080E0672B09F08062452B09F08064232B25
:1023500089F08068089581E0EF2B09F480E0672B15
:1023600009F08260452B09F08460232B19F0886006
:10237000089580E008958091990190E0019665E0CC
:1023800070E00E9406308093990124E030E0A901BA
:10239000481B590BCA01982F8827990F805C984FCA
:1023A0000E942F0D80E495E00E942F0D209198014E
:1023B00030E02F5F3F4F217033272093980181E059
:1023C00090E0821B930B982F8827990F805C9E4F7B
:1023D0000E942F0D0895B0E0A0E0E1EFF1E10C9430
:1023E00024306C017B0164E670E088E70E94022ED5
:1023F000EC0197FD12C010E000E0F601E00FF11FC4
:10240000849164E670E00E946E2EEC01892B29F421
:102410000F5F1F4F0E151F0581F70E94E42ECE019E
:10242000CDB7DEB7E8E00C94403080915002909137
:102430005102911103C091E089270895882369F022
:1024400062E070E082E892E10E94EB11892B19F0C2
:102450008091500208951092500280915002EBCF6B
:10246000CF93C0915002809151028823D1F00E94F5
:102470000B0F605A75418F4F9F4F60934C027093C2
:102480004D0280934E0290934F02C11108C062E04A
:1024900070E080E892E10E94EB11892B29F0C09155
:1024A00050028C2FCF91089581E080935002F7CF96
:1024B000CF93DF93C0918404D09185048A30C1F416
:1024C00020917B02CE0184589240622F70E00E94DE
:1024D000F22F281B822F66E00E945730C82FC15070
:1024E00018F4DF91CF91089580E20E945812F7CF3F
:1024F0008D30E9F4C458D24020917B02622F70E005
:10250000CE010E94F22F281B822F9E01280F311D21
:102510002115324018F080E0D0E0C0E0C80FD11D96
:10252000CC57DD4FD0938504C0938404DACF96E076
:10253000FE01ACE7B2E001900D929A95E1F7803E82
:1025400008F458C086E0FE0111928A95E9F7C0911F
:102550008404D091850446E050E0BE018CE792E00F
:102560000E94C8339E0124583240892B41F1C90191
:1025700045E0969587954A95E1F741E050E0BA012C
:1025800002C0660F771F8A95E2F7CB016091820245
:1025900070918302862B972BB9016B5F7F4FE5E02B
:1025A00076956795EA95E1F702C0440F551F6A9545
:1025B000E2F7842B952B90938302809382022A5F0B
:1025C0003F4F40917B02642F70E0C9010E94F22FBF
:1025D000481B463010F4240F311D211572E03707D7
:1025E00010F030E020E02C573D4F309385042093CD
:1025F000840477CFF6E08F9FB001112465527C4EA2
:1026000046E050E0CE010E94EB30A1CF8091B301B3
:102610009091B201892B8093900148E050E06AEAE2
:1026200071E080E991E00E94C833892BA9F088E02D
:10263000E0E9F1E0AAEAB1E001900D928A95E1F7B4
:10264000E0915402F0915502309731F00280F3810D
:10265000E02D80E991E00995089590E080E00E94E6
:10266000470F90E080E00E94310F1092B2010E946B
:102670000613089580937A020E942D130895809185
:102680007A02982F9670963021F488600E943A134F
:102690000895877FFBCF8093B4010E942D13089586
:1026A0001092B301E2E9F1E086E0DF011D928A9524
:1026B000E9F70E942D130895AAE2B0E0E2E6F3E103
:1026C0000C9429308FE692E02091F100DC012D93EB
:1026D000CD01B2E087379B07B9F780917002833054
:1026E00009F472C0B8F4813009F449C0823009F4A9
:1026F000B3C08091E80083FF96C280916F029091F1
:1027000070029A3008F08FC2E92FF0E0ED5BFB4CCD
:102710000C9451308A3009F48EC08B3009F471C0AA
:10272000893039F780916F02813219F780917302F5
:1027300090917402009711F00297D9F68091E80009
:10274000877F8093E8008091E80082FF38C09091F5
:10275000F3008091F200029731F48091F100813012
:1027600011F0863021F48091F10080936202809113
:10277000E8008B778093E8000E94EB0DBACF809140
:102780006F02813A09F0B5CF8091E800877F80938E
:10279000E8008091730290917402892B61F468E0E3
:1027A00083E692E070E00E94970E8091E8008B77BC
:1027B0008093E8009ECF60E090E080E0F3CF8091CE
:1027C0006D028111C0CF95CF80916F02813A09F0DF
:1027D00090CF8091730290917402892B09F089CF78
:1027E0008091E800877F8093E8008091E80080FF77
:1027F000FCCF809116018093F1008091E8008E77E4
:10280000B9CF80916F02813209F073CF809173024A
:1028100090917402892B09F06CCF8091E800877F3A
:102820008093E8000E94EB0D809171028093160165
:102830000E9450135ECF80916F02813209F059CF10
:102840008091E800877F8093E8000E94EB0D8091E3
:102850007202809361024DCF80916F02813A09F03C
:1028600048CF8091E800877F8093E8008091E8005E
:1028700080FFFCCF80916102BECF803899F0823812
:1028800009F0D1C1809173028F70873008F0CBC1FD
:102890008093E9008091EB0085FB882780F91092F6
:1028A000E90006C080916B0290916C0291118260E8
:1028B0009091E800977F9093E8008093F100109248
:1028C000F1008091E8008E77AAC1882309F498C1AD
:1028D000823009F0A8C18091710281119BC1809161
:1028E00073028F702FEF280F263008F09CC1809361
:1028F000E9002091EB0020FF8DC1933031F48091ED
:10290000EB0080628093EB0085C19091EB009061B9
:102910009093EB0021E030E001C0220F8A95EAF7A6
:102920002093EA001092EA008091EB008860EACFE1
:10293000811179C1109171021F778091E300807835
:10294000812B8093E3008091E800877F8093E800EB
:102950000E94EB0D8091E80080FFFCCF8091E300A6
:1029600080688093E30082E0111183E080936D0220
:102970005AC18058823008F056C1209171023091BE
:1029800072022C3DE3E03E07A1F583E08A838AE2F0
:1029900089834FB7F894DE01139620E03EE051E2C0
:1029A000E32FF0E050935700E49120FF03C0E2953D
:1029B000EF703F5FEF708E2F90E0EA30C0F0C79667
:1029C0008D939D932F5F243159F74FBF8091E8007D
:1029D000877F8093E8006AE270E0CE0101960E9452
:1029E000970E8091E8008B778093E8001CC1C09619
:1029F000E7CF8091730290917402432F55274330A3
:102A0000510509F44AC078F54130510509F485C0F3
:102A10008BE590E0E4E8F2E14230510509F003C1B2
:102A20002091E800277F2093E800209175023091E3
:102A300076028217930708F49C0140E021153105C6
:102A400009F070C041116EC08091E80082FDC9CFCD
:102A500080916D02882329F2853019F28091E80077
:102A600083FFF2CFBECF4132510509F447C0423255
:102A7000510509F0D8C08330910508F0D4C0FC019D
:102A8000EE0FFF1FEF57FE4F0190F081E02D8258AF
:102A90009E4FDC018C9190E01DC033272130310521
:102AA000E9F02115310579F022303105F9F02330B4
:102AB000310509F0B8C0E1EFF2E1E4918E2F90E02A
:102AC000E1EFF2E107C0E7E2F3E1E4918E2F90E05D
:102AD000E7E2F3E1009709F4A6C0A2CFE7E1F3E152
:102AE000E4918E2F90E0E7E1F3E1F4CFEFE0F3E142
:102AF000E4918E2F90E0EFE0F3E1ECCF833091058D
:102B000008F091C0880F991FFC01E957FE4F019012
:102B1000F081E02D89E090E083CF82E190E0EFED5D
:102B2000F2E17ECF80916D02882309F45ACF85307F
:102B300009F457CF8091E80083FD53CF8091E800DE
:102B400082FD82CF8091E80080FF78CF9091F300E2
:102B50008091F2002115310519F08830910550F06F
:102B600041E0089709F040E08091E8008E7780937B
:102B7000E80064CF44914093F1003196215031092F
:102B80000196E8CF803809F04EC08091E800877F39
:102B90008093E80080916E028093F10092CE8111C3
:102BA00042C0109171021230F0F58091E800877FE9
:102BB0008093E80010936E020E94EB0D112311F038
:102BC00084E005C08091E30087FDFACF81E0809327
:102BD0006D0242E061EC81E00E940A0E42E261EC8B
:102BE00084E00E940A0E42E261EC82E00E940A0E3A
:102BF00042E260EC83E00E940A0E80916D0213C0F5
:102C000080917102813079F481E0933009F080E0A5
:102C100080936C021092E9008091E800877F809396
:102C2000E8000E94EB0D8091E80083FF0AC08091CC
:102C3000E800877F8093E8008091EB0080628093BA
:102C4000EB00AA96E3E00C944530882341F0809590
:102C50009091B20189238093B2010E9406130895D6
:102C6000882339F09091B201982B9093B2010E9481
:102C700006130895882341F080959091B30189232C
:102C80008093B3010E9406130895882339F0909130
:102C9000B301982B9093B3010E94061308958823E3
:102CA000C1F19CEF980F913A78F4E2E9F1E091914B
:102CB000891303C0DF0111971C9241E0E839F40742
:102CC000B1F70E940613089590E2980F983088F4A7
:102CD000877021E030E0A90102C0440F551F8A959A
:102CE000E2F7CA0180959091B30189238093B301E3
:102CF000E8CF9BE5980F933028F490E080E00E94A5
:102D0000470F0895885A873120F490E080E00E94B0
:102D1000310F0895CF93C82F8823B1F08CEF8C0F1B
:102D2000813A00F5E2E9F1E088E991E0DF012D91D7
:102D3000C21761F08A179B07D1F76C2F80E991E0E9
:102D40000E94170F0E940613CF9108952191C2137C
:102D500003C0DF0111971C928E179F07B9F70E94DD
:102D60000613EBCF80E28C0F883068F4C77021E047
:102D700030E001C0220FCA95EAF78091B301822B9F
:102D80008093B301DFCFEBE5EC0FE33040F4F0E0EC
:102D9000E65DFE4F808190E00E94470FD5CFC85A74
:102DA000C73190F6EC2FF0E0EE0FFF1FE35DFE4F12
:102DB000808191810E94310FC7CF80935C02709314
:102DC0005E0260935D0280916D028430F9F480931D
:102DD000E9008FEF9091E800815095FD06C09AE6DA
:102DE0009A95F1F700C08111F5CF8091E80085FF39
:102DF0000DC050E040E063E070E08CE592E00E949E
:102E0000C10D8091E8008E778093E8000895BC01A1
:102E100083E00E94DD1608951F93CF93DF93182F50
:102E2000D0E0C0E0893311F4C0E5D0E0812F0E94EA
:102E30008A16209739F4812F0E944F16DF91CF9187
:102E40001F9108958FEC97E00197F1F700C0000003
:102E50002197EFCFB0E0A0E0E0E3F7E10C9422305F
:102E6000EC018AE0A82E2881222309F48FC02130AA
:102E7000C9F599818A81913021F422960E940C171C
:102E800005C0923029F422960E948A162196EBCF33
:102E9000933021F422960E944F16F8CF943011F00F
:102EA0002196F4CF229630E020E0AE014F5F5F4FD5
:102EB0008053990B8A30910550F02150310930F33D
:102EC0008FEC97E00197F1F700C00000F6CFA29ECB
:102ED000B001A39E700D11249C01260F371F89811C
:102EE000EA01E3CFE22FF0E0E55AFC4EB490822FE6
:102EF00086958695869590E0FC01E55BFC4EE49016
:102F00002770F12C022E02C0F594E7940A94E2F7A0
:102F100031E0E322FF24FC01E55CFC4EC490D12C9F
:102F2000022E02C0D594C7940A94E2F731E0C3227E
:102F3000DD24FC01E55DFC4E049110E002C0159516
:102F400007952A95E2F701701127E114F10419F0B1
:102F500081EE0E948A16C114D10419F086EE0E94F7
:102F60008A168B2D0E940C17C114D10419F086EE1D
:102F70000E944F16E114F10419F081EE0E944F16E1
:102F80000115110509F482CF8CE278CFCDB7DEB7F9
:102F9000EAE00C943E300E9450132FE78AE196E05D
:102FA000215080409040E1F700C0000088E19AE0A5
:102FB0000FB6F894A895809360000FBE90936000C0
:102FC000FFCFCF93DF93EC0180915F0281110CC0A2
:102FD0008091E30087FD0AC00E948B2CCE010E94E5
:102FE000CA2DDF91CF9108958330C1F3BE0184E0F3
:102FF0000E94DD16F6CFCF93DF93EC0180915F0244
:10300000811110C08091E30087FD0EC00E948B2CBF
:10301000BE016E5F7F4F46E088810E946A2DDF917E
:10302000CF9108958330A1F381E08093E9008FEF81
:103030009091E800815095FD06C09AE69A95F1F7C7
:1030400000C08111F5CF8091E80085FFE8CF50E006
:1030500040E068E070E0CE010E94C10D8091E80080
:103060008E778093E80088E0FE01A3E6B2E001904D
:103070000D928A95E1F7D3CFCF93DF93C7E2D1E0EA
:1030800060E0CE010E940D342196C11584E0D8077E
:10309000B9F7DF91CF9108950F931F93CF93DF93EB
:1030A000142F022F8430F0F461111CC094E0899F2A
:1030B000E0011124C95EDE4F82E090E0442311F06C
:1030C00090E080E0632F8C0F9D1F0E940D3483E001
:1030D00090E0112311F081E090E0602F8C0F9D1F94
:1030E0000E940D34DF91CF911F910F9108951F938E
:1030F000CF93DF93122F8430E0F46630D0F4453064
:10310000C0F4C42FD0E0CC0FDD1F9AE0699FC00D42
:10311000D11D11249CE3899FC00DD11D1124632F63
:10312000CE0187960E940D34612FCE0188960E94B1
:103130000D34DF91CF911F910895B0E0A0E0E3EA54
:10314000F8E10C941F30C0901401D090150181E07B
:1031500090E09093150180931401D0E0C0E020E44A
:10316000A22E22E1B22E32E4832E32E1932E84E4A9
:10317000E82E82E1F82E712C1AC02097D9F4F801BC
:10318000EE0FFF1FEE0DFF1D25913491402F672D8F
:1031900080E00E9477180F5F1F4F0530110569F717
:1031A0008AE0E80EF11C739486E0781639F110E09D
:1031B00000E0E3CF21E030E0402F672D8C2FE9CFF6
:1031C000F5012591349141E060E080E00E944C18C7
:1031D000F4012591349140E060E080E00E944C18B9
:1031E0002196C430D10509F0C2CFD0921501C0920A
:1031F0001401CDB7DEB7EDE00C943B30209701F31E
:1032000021E030E041E060E08C2F0E944C1821E08A
:1032100030E040E060E08C2FE1CFCF93C82F6FEF1C
:1032200081116CEA83E290E00E940D346FEFC111CE
:1032300067EB84E290E00E940D346FEFC11165ED01
:1032400085E290E00E940D34CF91089580E00E94C5
:103250000D1960E086E290E00E940D340E949D18F6
:103260000E943C1881E00E940D190895FF920F936F
:103270001F93CF93DF93F42E843040F5611126C065
:1032800024E0829F80011124095E1E4F82E090E0BD
:10329000442311F090E080E0800F911F0E94FF33E3
:1032A000C82FD0E0DC2FCC2783E090E0FF2011F086
:1032B00081E090E0800F911F0E94FF339E01282B38
:1032C000C901CDB7DEB7E5E00C94433090E080E073
:1032D000F8CF0F931F93CF93DF93843030F5663090
:1032E00020F5453010F5C42FD0E0CC0FDD1F2AE0CB
:1032F000629FC00DD11D11243CE3839FC00DD11DE1
:103300001124CE0187960E94FF33082F10E0102F62
:103310000027CE0188960E94FF339801282BC9010F
:10332000DF91CF911F910F91089590E080E0F8CF49
:10333000462F672F20914A0230914B02232BF9F43C
:10334000703F39F4403FD9F480914802909149028E
:1033500008958430A0F4763028F4453080F40E943B
:10336000691908957D3F39F4411109C041E060E0D9
:103370000E94361908957C3F11F44423C1F390E074
:1033800080E00895CF92DF92FF920F931F93CF9327
:10339000DF936C0100917A028091B401082BC7E0A1
:1033A000D0E010E0FC2EC8010C2E02C09595879548
:1033B0000A94E2F780FD0CC02197A0F7F12C8F2D25
:1033C000DF91CF911F910F91FF90DF90CF900895E3
:1033D000B6018C2F0E9498190E94830F019761F308
:1033E000EECF83E290E00E94FF338C3A89F484E2CE
:1033F00090E00E94FF33873B59F485E290E00E9401
:10340000FF3391E0853D09F090E0892F81700895A8
:1034100080E0FCCFCF9384E090E00E94FF33C82F80
:1034200082E290E00E94FF33982F8C2FCF91089575
:1034300068EE7EEF90E080E00E942B3460E082E056
:1034400090E00E940D3460E083E090E00E940D3433
:103450001092B40160E084E090E00E940D3464E0DA
:1034600082E290E00E940D3460E085E090E00E94EE
:103470000D3460E086E090E00E940D346FEF87E04D
:1034800090E00E940D3440E050E0BA0188E090E006
:103490000E941F3460E08DE090E00E940D3440E017
:1034A00050E0BA0188E190E00E941F3460E087E1BB
:1034B00090E00E940D3440E050E0BA018CE190E0D1
:1034C0000E941F3470E060E080E290E00E942B34A4
:1034D00040E050E0BA0188E190E00E941F3480E0B3
:1034E0000E940D190E94261940E050E0BA018FE0B9
:1034F00090E00E941F3440E050E0BA0183E190E088
:103500000E941F3408951F920F920FB60F9211243C
:103510002F933F934F935F936F937F938F939F93DB
:10352000AF93BF93CF93DF93EF93FF93D091E900D5
:10353000DF708091EC00C82FC17080FDC0E8109250
:10354000E9008091F000877F8093F00078940E94DA
:103550005C131092E9008091F00088608093F00085
:10356000CD2BCF70C093E900FF91EF91DF91CF9108
:10357000BF91AF919F918F917F916F915F914F918B
:103580003F912F910F900FBE0F901F9018951F9293
:103590000F920FB60F9211242F933F934F935F9387
:1035A0006F937F938F939F93AF93BF93EF93FF930B
:1035B0008091E10082FF09C08091E20082FF05C096
:1035C0008091E1008B7F8093E1008091DA0080FFA1
:1035D00023C08091D80080FF1FC08091DA008E7FC9
:1035E0008093DA008091D90019BC80FF9EC082E0F0
:1035F00089BD09B400FEFDCF81E080936D0280910A
:103600006002811109C00E94710D0E943C0E8091E0
:10361000E20084608093E2008091E10080FF17C0A7
:103620008091E20080FF13C08091E2008E7F809342
:10363000E2008091E20080618093E2008091D800F6
:1036400080628093D80019BC85E080936D028091E0
:10365000E10084FF2EC08091E20084FF2AC019BCE3
:1036600082E089BD89B5982F917080FFFBCF809152
:10367000D8008F7D8093D8008091E1008F7E809369
:10368000E1008091E2008F7E8093E2008091E20071
:1036900081608093E20080916E02882309F44AC021
:1036A00084E080936D020E9450130E945D0F809110
:1036B0006D028091E10083FF27C08091E20083FFCB
:1036C00023C08091E100877F8093E10082E08093B6
:1036D0006D0210926E028091E1008E7F8093E10076
:1036E0008091E2008E7F8093E2008091E200806111
:1036F0008093E20042E060E080E00E940A0E809148
:10370000F00088608093F000FF91EF91BF91AF913E
:103710009F918F917F916F915F914F913F912F91E9
:103720000F900FBE0F901F90189510926D0210927F
:10373000600272CF8091E30087FD93E090936D0269
:10374000B2CF78941F921FB61F9211248F939F932C
:10375000AF93BF938091580290915902A0915A0261
:10376000B0915B020196A11DB11D80935802909308
:103770005902A0935A02B0935B02BF91AF919F91FF
:103780008F911F901FBE1F9018959C014FB7F89402
:103790008091580290915902A0915A02B0915B0217
:1037A0004FBF821B930B08952FB7F8948091580256
:1037B00090915902A0915A02B0915B022FBF0895D7
:1037C0000F931F93CF93DF93C62FD42F022FFC01AB
:1037D00082818823A9F0609379020E94D41B909380
:1037E000780280937702C77081E001C0880FCA9584
:1037F000EAF70E944516DF91CF911F910F9108952E
:1038000080917902681332C080917702909178029A
:103810000E94C51B883C910548F510E21D0FCD178D
:10382000B9F080E28C0F883040F4C77081E001C0AD
:10383000880FCA95EAF70E943A16183048F481E0DA
:103840009D2F977001C0880F9A95EAF70E94451640
:10385000802F0E940C17183070F6D77081E001C0DD
:10386000880FDA95EAF70E943A16C5CFC77081E053
:1038700001C0880FCA95EAF7F6CFA5E0B0E0E3E40F
:10388000FCE10C9428308C0190934902809348020B
:10389000011580E21807C0F4C8010E948A1198013E
:1038A000205E31092830310518F00115110549F461
:1038B0000E944516802F0E948A162596E4E00C94FB
:1038C00044300E943016F6CF80EF89838A8381E0EE
:1038D0008B830E94D41B8160782F9D838C834981C8
:1038E0005A816B818D810E94761CE7CFAFE0B0E0FA
:1038F000ECE7FCE10C9423304B875C876D877E8777
:103900008F8761111092B20185E0FE013B96DE01C6
:10391000169601900D928A95E1F789859A85892BF3
:1039200031F08E819F8189238F3F09F0FBC32F9651
:10393000E9E00C943F300E94C219182F682F89814A
:103940009A810E946E1169817A81812F0E94981953
:103950008C012885222309F4D6C39056811530E2C4
:10396000930750F0905E811540E1940728F0915C38
:1039700081159F4108F064C0C8019927AC014450EB
:1039800051094432510518F08B970E9780F4E0915D
:10399000CF01F0E0EE0FFF1FEC52FE4F80819181CE
:1039A0008F3F3FE7930719F0019691838083C80109
:1039B00082519F45409708F07FC38FEF93E00E94AC
:1039C000FF338111B4CF3EEEF32EF00E07E211E08B
:1039D000F1103FC019821A821B821C82BB24BA9448
:1039E00078015FEFE51AF50AC8010E94FF33898369
:1039F0001A82882309F49BCF813009F08CC06801BA
:103A000082E0C80ED11CC7010E94FF33E82E8A83D2
:103A1000882309F48CCFC6010E94FF33F82E8FEF64
:103A20008E0D833020F5680193E0C90ED11CFB8216
:103A3000FF2021F0CE0101960E942A178601D0CFE7
:103A400090E080E00F3F110511F008F097CFC8011A
:103A500095CF011544E0140709F469CFC8010E940D
:103A6000FF33811101C0FA940F5F1F4FB1CF8BEF6D
:103A70008E0D833040F5C8010396FB826C01FF2058
:103A8000E9F26801E4E0CE0ED11C0E94FF338C8382
:103A90008823A1F20B811C810130FFEF1F0710F07A
:103AA000102F002726E0E21651F037E0E31619F058
:103AB000C8010E943D1CC8010E940421BFCFC8015B
:103AC0000E943D1CBBCF44E0E412B8CF680154E033
:103AD000C50ED11CC80103960E94FF33FF2009F4D4
:103AE00026CF882309F423CF8150990BB89E9001EB
:103AF000B99E300D1124EF2DE150FF0BCF01820F45
:103B0000931F019708F49ACFEFECF7E03197F1F7A4
:103B100000C00000F6CFCE0101960E942A1767016F
:103B20008DCF80917A0282600E943A130E943F13E7
:103B3000FECE80917A028D7FF7CF8B7FF5CF053F48
:103B4000ECE51E0709F461C008F45BC0063F3CE5E4
:103B5000130709F45EC0222309F4F5C2109279021A
:103B600003304DE5140708F05BC00A3F5CE515071C
:103B700030F4C80182509C45449708F05CC00E9414
:103B80000A1A9093BF018093BE010231FCE51F0722
:103B900009F45FC108F0ABC009303CE5130709F434
:103BA00032C108F077C005305CE5150709F41FC184
:103BB00008F05EC003309CE5190709F410C108F055
:103BC00012C18091BE0181600230FCE51F0709F43B
:103BD0008BC06091BE011091BF0184E090E00E9413
:103BE0000D34612F82E290E00E940D340E94501348
:103BF0009ECE27E245EE65EE81C226E241EE60EE02
:103C00007DC227E245EE64EE79C226E241EE62EE25
:103C100075C227E245EE66EE71C228E241E0EBCFC5
:103C2000053A8DE5180709F4AACFE0F40136EDE571
:103C30001E0709F4A4CF0631FCE51F0709F09AC25C
:103C40008091B3018A7A91E009F490E090939A010F
:103C500069E2811165E380E991E00E94170F0E94FB
:103C6000061365CEC8018D5A9D45039720F787CF6F
:103C70008091BE01806207302CE51207A9F1809186
:103C8000BE01806108303CE5130770F18091BE01F0
:103C900080642AC00D304CE5140709F4C2C080F4DA
:103CA0000B308CE5180709F4B4C08091BE018C601C
:103CB0000C309CE51907C0F08091BE018D7F14C0C7
:103CC0000F30ECE51E0709F4BCC008F4AEC00031AB
:103CD0002CE5120709F4B9C08091BE018F7B013138
:103CE0003CE5130709F075CF8093BE0172CF0F3FFB
:103CF0004CE5140709F4B7C098F50A3F8CE518079E
:103D000009F479C0C0F40431ECE51E0709F4B9C028
:103D100008F4A5C005312CE5120709F05ACF8091AF
:103D2000BE0182FB992790F921E0922790FB82F94E
:103D300090FB83F9D9CF0C3F3CE5130709F479C018
:103D400008F45DC00D3F5CE5150709F476C00E3F31
:103D50008CE5180709F03DCF8091BF0183603CC01E
:103D600001369DE5190709F497C090F40130FDE58F
:103D70001F0709F48FC008F47AC060E002303DE507
:103D8000130709F026CF8EE090E00E940D3421CF7A
:103D90000D3A4DE51407E9F060F4053A8DE5180792
:103DA00009F017CF9091BE01892F8E7F90FF81601F
:103DB0009BCF0E3A9DE5190781F10F3AEDE51E07FD
:103DC00009F007CF9091BF01892F877F93FF88600B
:103DD00003C08091BF0188608093BF01FACE8091BB
:103DE000BE01826081CF8091BE0184607DCF8091D1
:103DF000BE01886079CF8091BF018160EDCF809155
:103E0000BF018260E9CF0E9450138091BE0180689B
:103E10006BCF8091BE018E7F67CF8091BF01877F7E
:103E2000DBCF8091BE018B7F5FCF8091BE01877F0A
:103E30005BCF8091BF018E7FCFCF8091BF018D7FFF
:103E4000CBCF8091BE018F7E4FCF8091BE018F7D01
:103E50004BCF0E9450138091BE018F7745CF809148
:103E6000BE01837F41CF8091BF018C7FB5CF809110
:103E7000BF01982F909591708E7F892B90FB81F9CF
:103E8000ABCF0E9450139091BE01892F97FB87F909
:103E900080582ACF61E077CF9091BE01892F8F7E25
:103EA00094FF806121CF85E357C10E9450132FE713
:103EB0003AE146E0215030404040E1F700C00000C8
:103EC0000E94FA0E10925F0232CD82E080935F0270
:103ED0002ECD83E0FBCF0E942411F82E68C108305C
:103EE00009F471C0093009F076C19F7021E030E01B
:103EF000790102C0EE0CFF1C9A95E2F7882309F4C1
:103F0000D3C080917A028E290E943A13812F0E9499
:103F1000451661C1592F5F70F52E907F19F0F2940C
:103F200090EFF9228823C9F0FF2069F080E2810F29
:103F3000883010F011110BC08091B301F82AF09273
:103F4000B3010E940613812F0E948A1644C18091FA
:103F5000B201F82AF092B201F4CF812F0E944F16DD
:103F6000FF2009F438C1F094105E183010F0E11011
:103F700008C08091B301F822F092B3010E940613A9
:103F80002AC18091B201F822F092B201F7CF292F15
:103F900026952695237051F0213009F01CC1882305
:103FA00079F0812F93700E94310F15C1882329F079
:103FB000812F93700E94470F0EC190E080E0FACFEE
:103FC00090E080E0F0CF292F2370A1F5811103C18B
:103FD000812F829586958770880F880F412F4F70AB
:103FE000082E01C0440F0A94EAF7212F207114FF14
:103FF00007C02FE030E001C0220F8A95EAF7209534
:10400000969596959370923081F0822F842B933001
:1040100030F48091B401913029F0242B82230E9446
:104020004B13D9C0842B822BFACF242B8091B4015F
:104030008227F5CF2695882311F0292F217022237E
:1040400009F4C9C0812F829586958770880F880FE3
:10405000412F4F70082E01C0440F0A94EAF7212F18
:10406000207114FF07C02FE030E001C0220F8A95B5
:10407000EAF72095969596959370923081F0822F6D
:10408000842B933030F480917A02913029F0242BE4
:1040900082230E943A139FC0842B822BFACF242BB9
:1040A00080917A028227F5CF812F0E943A16E09400
:1040B00080917A028E21EDCF00318FE5180709F447
:1040C00030CD01319FE5190731F1033F3CE513077E
:1040D00009F493CD08F033CD083D5CE5150709F4EC
:1040E00088CD093D8CE5180709F497CD073D9CE57F
:1040F000190709F030CD26E241EE61EECE010696B9
:104100000E94E01B14CC8031EFE59E0709F411CD2D
:1041100081319F45D1F680917A02222309F40DCD99
:10412000846002CD85E0FE013696DE011196019095
:104130000D928A95E1F789819A816111FCCB0E94E9
:104140002411182F00CC06313CE5130719F5809196
:104150009A018111A8CE89E2E2E9F1E028E931E093
:104160009191891303C0DF0111971C922E173F070D
:10417000B9F775CD0D3D4CE5140709F4A6CEA0F5B1
:1041800001158CE5180709F490CE0C3D9CE5190744
:1041900009F498CE0E811F81C801222309F49BCE19
:1041A0000E94C219F82E682FC8010E946E11B80132
:1041B0008F2D0E9498190E94830F182FE82E888552
:1041C000092F02950F70043009F4E1CE08F087CE74
:1041D000023008F49FCE0850110B0230110508F090
:1041E000A6CB0E945D0FA3CB0932EDE51E0709F4B3
:1041F00070CE073AFDE51F0729F00E3D1C4551F62C
:104200000E94181A0E94CB17A5E0B0E0EAE0F1E2A4
:104210000C9428308C019093490280934802011538
:1042200080E21807C0F4802F0E944F16C8010E9438
:104230008A119801205E31092830310518F00115E6
:10424000110531F40E943A162596E4E00C944430AE
:104250000E942516F9CF80EF89838A831B820E94F2
:10426000D41B8160782F9D838C8349815A816B8117
:104270008D810E94761CE8CFA6E0B0E0E2E4F1E296
:104280000C941F308E010F5F1F4F86E0D8011D92E6
:104290008A95E9F78BE5882E81E0982E90E6E92E45
:1042A00091E0F92E77247394CC24C394D12C36E674
:1042B000A32E31E0B32EF40181914F018F3F09F419
:1042C00043C0F894E82FE295EF70F0E021A18F70E1
:1042D000A60102C0440F551F8A95E2F7CA01922F2A
:1042E000982B91A392A18095892382A3789400C0F2
:1042F00060E671E0F801472D4095DB019D91BD011D
:1043000080819F3F09F45EC0292F22952F7030E0F5
:10431000D90190962C9130E09F7002C03595279579
:104320009A95E2F720FD4EC0872980833196A61624
:10433000B70619F7F401319780818F3F11F00E9481
:104340006C0FB0E5BA95F1F7770CE814F90409F0B1
:10435000B2CF46E050E0B80188EB91E00E94C8334C
:10436000892B91F186E0F801A8EBB1E001900D9264
:104370008A95E1F781E08093B7010E94D41B909366
:10438000B6018093B5018091B5019091B6010E946C
:10439000C51B0597E8F046E050E068EB71E082E469
:1043A00092E00E94C833892BC1F086E0E8EBF1E08F
:1043B000A2E4B2E001900D928A95E1F781E01092BB
:1043C000B70107C08423B1CF8091B7018111DBCF42
:1043D00080E02696EDE00C943B3080E0F0CF1F9219
:1043E0001FB61F9211248F939F93AF93BF93809119
:1043F000580290915902A0915A02B0915B024196E5
:10440000A11DB11D8093580290935902A0935A02A6
:10441000B0935B02BF91AF919F918F911F901FBE90
:104420001F901895873909F43FC070F58633F1F174
:1044300028F58433E9F18533E9F18FE195E890932C
:104440007A00982F9072906890937B008F718064AF
:1044500080937C0080917A00806480937A008091C0
:104460007A0086FDFCCF80917800209179009091B0
:104470007A009F7790937A00922F08958439E1F023
:104480008639D9F681E2DACF843FC1F030F4803F3B
:10449000B9F0813F91F681E0D1CF863F99F0A0F04D
:1044A000873F59F687E0CACF82E2C8CF85E2C6CF00
:1044B00083E2C4CF84E2C2CF80E2C0CF84E0BECF2B
:1044C00080E0BCCF86E0BACF85E0B8CFCDB7DEB70D
:1044D000CB54D1090FB6F894DEBF0FBECDBF85B760
:1044E000806885BF85B7806885BF84B7877F84BFB4
:1044F0000FB6F894A8958091600088618093600061
:10450000109260000FBE80E890E00FB6F8948093A0
:104510006100909361000FBE8AE69FE090938F0147
:1045200080938E010E94710D0E943C0E8091E200EA
:1045300084608093E200789480916D028823A1F0DA
:104540001091E9001F709091EC00892F817090FD0F
:1045500080E8182B1092E9008091E80083FD0E940A
:104560005C131F701093E90082E084BD93E095BD59
:104570009DE797BD80936E000E94F119811102C0E2
:104580000E9426190BE511E030E6E32E31E0F32E10
:10459000D8018D918D018F3F11F00E946C0FE016B4
:1045A000F106B1F700E611E026E6E22E21E0F22E58
:1045B000F80181918F018F3F11F00E946C0FE0167E
:1045C000F106B1F786E0E2E4F2E0DF01282F1D9268
:1045D0002A95E9F7E8EBF1E0DF011D928A95E9F70A
:1045E00090E080E00E940734883E9E4F21F40E94B4
:1045F000F119811102C00E94181A82E090E00E9415
:10460000FF338093C2010E940A1A9093BF018093E6
:10461000BE010E943C21EFE1FEE43197F1F700C0BA
:1046200000000E943C218091420280FF08C06FEF91
:104630007FEF90E080E00E942B340E94FA0E83E02E
:1046400090E00E94FF330E944B1382E080933D0272
:1046500080E880937B020E94FC2D6DE070E083E592
:1046600091E10E94EB11892BE9F580913D0263E015
:1046700070E081FDB2C080E591E10E94EB11892BD1
:1046800089F56DE070E080E491E10E94EB11892BE7
:1046900049F50E940B0F605A75418F4F9F4F6093F1
:1046A0004C0270934D0280934E0290934F02E4E8C7
:1046B000F2E080E092E0DF019C011D922150304049
:1046C000E1F7F0938504E09384048FEF9FEF9093DC
:1046D00083028093820281E0809351028093500292
:1046E00010923E0281E0809308023E98469A5798C5
:1046F0005F9A87EC90E00197F1F700C000004091CD
:10470000080269E072E0FB018E2F861B841708F413
:1047100067C080E091E09093550280935402DE01DF
:1047200011966D010E943C2183ECE82E81E0F82E69
:1047300002E412E029EC31E0D801F70191918D916A
:104740002E173F0709F45DC09817C1F3B12CF8018B
:10475000A1908F01D7013D907D013A1499F13A243F
:10476000912C88248394832D882121F123969FAE58
:1047700023972496BFAE249791E08A2D882109F4CF
:1047800090E025969FAF25970E94D41B8160782FDB
:1047900027969FAF8EAF279723964FAD23972496EA
:1047A0005FAD249725966FAD259727968FAD2797F8
:1047B0000E94761C9394880CB5E09B12D4CFF7012D
:1047C0003197A082B394E6E0BE12C1CF0E940B0FD6
:1047D000B1E02896BFAF28973BC08DE491E14DCF63
:1047E00086B186FB882780F929B130E0220F232F7C
:1047F000221F330B90E0232B09F092E0892B819349
:1048000083CF9813A3CF0E94D41B8C018091C00149
:104810009091C10108171907C1F08FEF8DAF8EAFCE
:104820001FAE0E94D41B8160782F22969FAF8EAF5F
:1048300022974DAD5EAD6FAD22968FAD22970E944F
:10484000761C1093C1010093C00128961FAE2897D3
:104850008090D4019090D501092C000CAA08BB08C7
:1048600080910C0190E0E4EDF1E021E030E032963F
:10487000821793070CF0BCC18091D0019091D101B7
:10488000A091D201B091D3016FB7F8944090580233
:104890005090590260905A0270905B026FBF481AA4
:1048A000590A6A0A7B0A10910C01F9EC4F1651045F
:1048B0006104710414F18091CF0190E0019669E1E7
:1048C00070E00E9406308093CF01880F991FFC0191
:1048D000EC52FE4F11821082812F183108F087E1CF
:1048E0008F5F80930C010E940B0F6093D001709337
:1048F000D1018093D2019093D30122E082169104DA
:10490000A104B1040CF481C1A0E6BAEEA5019401A2
:104910000E94AB304B015C0188EC189F9001112480
:10492000032E000C440B550B240D351D461D571D41
:10493000A5E0B0E00E94AB309B01AC01C501B40121
:104940000E94633029013A0191EF49165104610434
:1049500071042CF010EF412E512C612C712C8091A0
:10496000CB019091CC01A091CD01B091CE012FB798
:10497000F8948090580290905902A0905A02B090FA
:104980005B022FBF881A990AAA0ABB0AA5E68A16F3
:104990009104A104B10484F00E940B0F6093CB0139
:1049A0007093CC018093CD019093CE01809112023F
:1049B0008093CA014092C9011091CA01A091C90116
:1049C000A11BBB0BA50194010E94B63024E630E088
:1049D00040E050E00E948530120F10931202912C9B
:1049E000B12CADEF8A2E33243394BCEF2B2E809163
:1049F0000802981608F40DC1B1100E940B0F8091A7
:104A00005102882309F49FC084E892E090938504C2
:104A10008093840480911202882309F49EC10E942D
:104A2000301240910E0250910F026091100270916D
:104A300011022FB7F8948091580290915902A091D9
:104A40005A02B0915B022FBF841B950BA60BB70BCC
:104A5000893C9105A105B10560F00E940B0F6093A0
:104A60000E0270930F0280931002909311020E9425
:104A7000BB110E940B0F60930A0270930B0280938C
:104A80000C0290930D0280917B0224E0829FC00172
:104A90001124811532E0930714F090E080E08C57E8
:104AA0009D4F9093850480938404809112021F92FD
:104AB0008F9380E291E09F938F9303E112E01F9325
:104AC0000F930E94DC33D8010D900020E9F78D018F
:104AD000015011090F900F900F900F900F900F90B1
:104AE00073E1E72E72E0F72EE016F10608F47EC1BE
:104AF00080915102882371F02091820230918302CB
:104B00002115310539F080913E0261E070E0882383
:104B100009F473C1809150028823A9F00E940B0F01
:104B200000914C0210914D0220914E0230914F02A3
:104B3000601B710B820B930B6F3F7F4F8F4F9F4713
:104B400010F40E94151228968FAD2897811101C08C
:104B5000B1100E9430120E945D0F90913F028917A0
:104B600021F080933F020E940B0F0E94EA2C80915B
:104B70006D02843009F0D6CD83E08093E900809106
:104B8000E80082FFCFCD8091E80090E085FF0CC067
:104B90000E94900D30E2E32EF12C8E010F5F1F4F2B
:104BA000882309F405C291E08091E8008B77809317
:104BB000E800992309F4B6CD00914A0210914B0206
:104BC00089810115110509F401C28E3F09F041C226
:104BD0008A81833020F08550833008F03AC2EA8120
:104BE000EE3008F036C2F0E0E35BFB4C0C94513041
:104BF00040815181052E000C660B770B840E951EAB
:104C0000A61EB71E2F5F3F4F32CE412C512C3201D2
:104C1000A6CE092D10E0E6B1E6FBEE27E0F989B15A
:104C200090E0880F892F881F990B892B09F093C07A
:104C300080E08E2BD801A75FBD4FEC919E2F937023
:104C4000891709F486C0EE0FEE0FE82BEC93EF7096
:104C5000F0E0EA59FE4F9801295F3D4F79018081CC
:104C6000D9019C91890F8C9320E084308CF1F8015C
:104C7000EA5FFD4F80818F5F80830E94D41B9BAAD7
:104C80002CAA3DAA8160782F9FAB8EAB492D5CEF9B
:104C900061E08FA90E94761CEFE9FFE03197F1F700
:104CA00000C000000E94D41B98AE29AE1AAE8160ED
:104CB000782F9CAF8BAF492D5CEF60E08CAD0E94EC
:104CC000761C8FE99FE00197F1F700C0000021E01A
:104CD000D7018C918D3F8CF5F801EA5FFD4F808103
:104CE000815080830E94D41B99A68AA63BA681602E
:104CF000782F9DA78CA7492D5DEF61E08DA50E94BF
:104D0000761CEFE9FFE03197F1F700C000000E9448
:104D1000D41B9EA68FA618AA8160782F9AAB89AB68
:104D2000492D5DEF60E08AA90E94761C8FE99FE023
:104D30000197F1F700C0000021E0D7018C91082E07
:104D4000000C990B64E070E00E940630F70180834C
:104D5000B22A93944CCE82E06CCF40910A025091DB
:104D60000B0260910C0270910D022FB7F8948091A4
:104D7000580290915902A0915A02B0915B022FBF44
:104D8000841B950BA60BB70B813C9742A940B1053C
:104D900018F00E94151277CE40910E0250910F022A
:104DA00060911002709111022FB7F894809158020F
:104DB00090915902A0915A02B0915B022FBF841BBF
:104DC000950BA60BB70B893C9105A105B10508F41D
:104DD0005ACE0E940B0F60930E0270930F028093C5
:104DE0001002909311020E94BB114DCEF7018191E8
:104DF0007F010E94581278CE8F5F282E312C7B01C4
:104E0000082E02C0EE0CFF1C0A94E2F7A9014E2105
:104E10005F21452B89F390913D0290FD43C082951F
:104E2000880F807680930F019101369527953695EE
:104E3000279520931201815E809310011092130137
:104E400024E630E047E050E06DE071E088E70E9442
:104E50009C2E892B09F05ECE55E0220C331C5A950E
:104E6000E1F780913D0280FD2BC0A1014C575D4FC1
:104E700004E610E020E230E060E488E70E94BD2E06
:104E8000892B09F047CE0E943012E094F094809173
:104E90008202909183028E219F21909383028093BE
:104EA000820238CE880F880F880F80930F011092EE
:104EB0001201895F8093100183E080931301C0CFBA
:104EC000EDE1F2E080E2DF011D928A95E9F7EAE781
:104ED000F1E02C96FFAFEEAF2C9746E7642E41E051
:104EE000742E77E011E02C96AEADBFAD2C974D91AE
:104EF0002C96BFAFAEAF2C97F30181913F01820D8D
:104F0000932D911D9C012C573D4F2901E42FF0E07A
:104F1000E35EFD4F30E020E0A72EA21A612F022EA3
:104F200001C0660F0A94EAF7420190E0D4018D9126
:104F30004D0186230A2D091B0770402F002E000CFF
:104F4000550BB82F01C0BB0F0A95EAF70B2F5195EF
:104F5000419551094770552701C086954A95EAF752
:104F6000082B8081082B00839F5F9830F9F62F5F14
:104F70003F4F31962830310579F6EEE7F1E02C9677
:104F80002EAD3FAD2C97E217F30709F0ACCF04E646
:104F900010E020E230E04DE152E06ECF8091F10070
:104FA000D8018D938D01B1E0EB1AF10809F4FBCD26
:104FB0008091E80085FDF2CF8091E8008B778093A7
:104FC000E8000E94900D882399F3EDCD8D3009F40F
:104FD000A7C0B8F4843009F48AC048F4823049F19B
:104FE00008F076C0813009F18FEF898332C08630B6
:104FF00009F493C008F486C08C30B1F780E18A834D
:1050000028C0813109F4E8C040F48F3009F4B7C0FA
:1050100008F48AC00E943C181CC0833109F408C1FE
:1050200008F4DCC08E3F01F7DACD1A8289E08B8369
:1050300010C08A81823009F4EAC1833081F1813065
:1050400099F60E940B0F0E94A4306B837C838D83A2
:105050009E8380916D02843009F064CB1091E90049
:105060001F709091EC00892F817090FD80E8182BC3
:1050700082E08093E9008091E80080FF0CC050E05E
:1050800040E060E270E0C6010E94C10D8091E8003E
:105090008E778093E8001F701093E90043CB8091D6
:1050A000140190911501892BA1F2809142028B830A
:1050B000809143028C83809144028D8380914502CC
:1050C0008E83809146028F83809147028887C1CF6B
:1050D0008A81823009F088CF6B817C818D819E81AD
:1050E0000E94A43086E290E00E940D34B2CF4C8141
:1050F0006B818A810E9469199827892798279E8346
:105100008D83A7CF2D813E813227232732274C81E3
:105110006B818A810E9477189CCF0E949D1899CF3D
:1051200082E08A8389ED83CF0C8110E00D31110577
:1051300008F08FCFAA80BB80BA24AB24BA24FE012A
:1051400031967F010E0F1F1FC501895D9E4FE0162E
:10515000F10609F47ECFF9EDAF16F2E0BF0660F478
:105160000E94FF33D70114968C93FFEFAF1ABF0A4A
:105170002FEFE21AF20AE8CFF7011482F6CF8091FE
:10518000140190911501892B09F463CFEC80F12C67
:105190003DE1E316F10408F05CCF0A811B81102782
:1051A00001271027CE0101965C01E00EF11EC80117
:1051B000895D9E4FE016F10609F44BCF093DA2E050
:1051C0001A0720F4F50164810E940D34FFEFAF1A35
:1051D000BF0A0F5F1F4FEBCF84E011CF0C8110E0AF
:1051E0000D31110508F035CFAA80BB80BA24AB245D
:1051F000BA249E012F5F3F4F7901020F131FC50193
:105200008796E016F10609F424CF30EFA316B10417
:1052100060F40E94FF33D70114968C93FFEFAF1A0E
:10522000BF0A2FEFE21AF20AEACFF7011482F6CF93
:10523000EC80F12C3DE1E316F10408F00ACF0A817D
:105240001B81102701271027003F110508F001CF0F
:1052500080EF90E0801B910B8E159F0508F4F9CE2E
:10526000CE0101965C01E00EF11EC80187960E1575
:105270001F0509F4EECE003F110528F4D501149660
:105280006C910E940D34BFEFAB1ABB0A0F5F1F4F2A
:10529000ECCF88E0E8E1F1E0DE01919601900D921B
:1052A0008A95E1F780E2F60111928A95E9F785E0A7
:1052B000898388E0FE01B196DE01159601900D927A
:1052C0008A95E1F7C6CE80EE89831A821B821C8202
:1052D000C0CE8C81682F70E0762F66278B81860F79
:1052E000972F911D092E000CAA0BBB0B25E0880FF0
:1052F000991FAA1FBB1F2A95D1F7AC01BD01405EC3
:105300005F4F6F4F7F4F481759076A077B0708F4B5
:10531000A0CE803E9105A105B10508F09ACE413E90
:1053200051056105710520F040EE50E060E070E04D
:10533000481B590BBC01605A7E4EC6010E94EB30DF
:1053400088CE1B810C8140E0602F812F0E9436198E
:105350009827892798279A83898341E0602F812F96
:105360000E9436199827892798279C838B8371CEB2
:105370002E813F813227232732272115FCE53F0765
:1053800041F48091140190911501892B11F430E0C2
:1053900020E041E08D81811101C040E06C818B8172
:1053A0000E944C1856CE4EE150E06FEF70E0CE01F7
:1053B00003960E94D5338091140189830A8349CED4
:1053C00081E090E090934B0280934A0282E390E068
:1053D00090934102809340020E94D41B3ACE809168
:1053E000140189830A838091400221CE40E250E07B
:1053F0006FEF70E0C6010E94D5332BCE8B818111F7
:1054000028CE80E2D6011D928A95E9F722CE86E267
:1054100090E00E94FF331B821C821D828E8319CE76
:10542000EF92FF920F931F93CF93DF93EC018B01C9
:1054300022E030E040E060E084E30E94F02E0E9431
:10544000D41B7C0188810E94682F8E3F9105E1F476
:105450000E94C82F82E48A95F1F700C022E030E074
:1054600040E060E084E30E94F02EC7010E94C51B6B
:105470008017910738F3C0E00E94C82F8C2FCDB75A
:10548000DEB7E6E00C9442306B816F7770E06D5FC1
:105490007F4FCE0101960E94982FC1E0EDCFEF9291
:1054A000FF920F931F93CF93DF93EC017B010E9438
:1054B000D41B8C01669922C082E08A95F1F700C066
:1054C000C8010E94C51B8E159F05A0F3C0E08C2F5C
:1054D000CDB7DEB7E6E00C94423063E070E0CE0179
:1054E00001960E94B02F6B816F77613128F470E0D4
:1054F000CE0104960E94B02FC1E020C022E030E02F
:1055000040E060E084E30E94F02E0E94802F8883B8
:105510008E3F18F30E94C82F82E48A95F1F700C0ED
:1055200022E030E040E060E084E30E94F02EC80119
:105530000E94C51B8E159F0540F3C0E00E94C82F36
:10554000C6CFA4E1B0E0E7EAFAE20C942930182FC4
:10555000E0918B0480918A04E81719F1669B25C0BD
:1055600066E970E0CE0101960E944F2A8823C9F0B7
:105570008C8187FD0CC080918B0490918A048917DF
:1055800081F090E001968170992780938B0411231C
:1055900041F090918B0480918A04981711F06699DC
:1055A000DFCF6496E3E00C944530F0E0EE0FFF1F90
:1055B000EA57FB4F808191810E94C51B8D3291403B
:1055C00080F380918B0490918A04891751F390E0C5
:1055D00001968170992780938B04E3CFA8E2B0E015
:1055E000E4EFFAE20C941D308C017B016A01490161
:1055F000FC0101900020E9F7CF0101975C01672BC6
:1056000061F090918A0480918B04981721F081E0D9
:105610000E94A12AF6CFF701108240E1742E5AE0D1
:10562000652E60E9562EA501401B510B41315105F5
:10563000C4F07D8A1E8A6F8A588EF801DE01599661
:10564000872D01900D928A95E1F7B401CE01459620
:105650000E94102A811102C010E03AC0005F1F4F63
:10566000E2CF80E18D8B1E8A8AE08F8B842F8F772B
:10567000888F5527B801CE0149960E940D31B4019B
:10568000CE0145960E94102A182F882329F3E11491
:10569000F10419F50E94D41B7C0180918A0490E0EA
:1056A0009C012F5F3F4F2170332740918B044213A1
:1056B00004C080E00E94A12AF0CF880F991FFC014E
:1056C000EA57FB4FF182E08220938A040E94D41BA8
:1056D000812FA896EFE00C9439305701AC0CBD1C1B
:1056E00087016CE271E0CE0101960E944F2A882367
:1056F00009F4B2CF8981803219F0F7011082ACCF62
:105700008C818F77CA2CC01A8C1508F4C82ECC2037
:1057100051F0D12CA601BE016B5F7F4FC8010E94E2
:105720000D310C0D1D1D8C8187FDDBCFF801108222
:1057300001501109E016F10630F4F80180818A3039
:10574000A9F38D3099F36AE070E0C7010E94163129
:10575000009721F07C01FFEFEF1AFF0A65E07AE184
:10576000C7010E94F43011E0892B09F4B1CF74CF46
:10577000B0E0A0E0EEEBFBE20C9420307C015B019A
:105780004A01CDB6DEB60E94043101962DB73EB770
:10579000281B390B0FB6F8943EBF0FBE2DBF0DB7B7
:1057A0001EB70F5F1F4FB701C8010E94FD3026E9E9
:1057B00030E0A401B501C8010E94EE2A0FB6F894AA
:1057C000DEBE0FBECDBEECE00C943C30AAE7B0E0EC
:1057D000ECEEFBE20C9421307C0190918A048091E4
:1057E0008B04981334C080911D0690911C06891774
:1057F00071F12AE0289FC001112484579B4FFC01BE
:10580000DE01AF58BF4F01900D922A95E1F7FC01E0
:105810001081D580C680B780A08491840E94D41B5B
:1058200090932906809328061123B1F0113009F4D2
:1058300056C080911D0690911C06891741F090E09A
:10584000019668E270E00E94063080931D06C658FB
:10585000DF4FEBE00C943D3066E379E18E010F5FA2
:105860001F4FC8010E94FD301F929F921F92AF925E
:105870001F92BF921F92CF921F92DF92E6968FAD3A
:10588000E6971F928F93E5968FADE5971F928F93C2
:105890001F930F931F9280E38F93005C1F4F1F9302
:1058A0000F930E942931970150E040E070E060E0E2
:1058B000C8010E94EE2A0FB6F894DEBF0FBECDBF1E
:1058C0008111B7CFFFE729EA33E0F15020403040A3
:1058D000E1F700C0000081E00E94A12AB8CF6BE18F
:1058E00079E18E010F5F1F4FC8010E94FD30E696DF
:1058F0008FADE6978F93E5968FADE5978F931F93C6
:105900000F931F9280E38F93005C1F4F1F930F93A1
:105910000E942931C8CF80911E060895A2E8B0E008
:10592000E4E9FCE20C94263080911F0681111EC030
:105930001092200610921E066E9876980E94E82E0D
:10594000549A5C9A5C988FE19EE40197F1F700C04D
:1059500000005C9A9FEF29E688E19150204080404A
:10596000E1F700C0000081E080931F06109220063E
:1059700003EA19E18FEAE82E89E1F82E42E050E0CF
:10598000B801CE018F579F4F0E94EB3040E850E0A6
:10599000BE016F5F7F4FCF57DF4F88819981C1581C
:1059A000D0400E94B82B882371F00E5F1F4FE01685
:1059B000F10621F781E0809320060E94D41B90938A
:1059C00029068093280680912006CE57DF4FE6E017
:1059D0000C944230A0E3B0E0E0EFFCE20C942A30FB
:1059E00080912006811105C00E948E2C882309F425
:1059F0006DC081E00E94A12A8AE090E00E94E62B1F
:105A000080912806909129060E94C51B893E9340EB
:105A1000C8F180912106811117C040E350E0BE011A
:105A20006F5F7F4F80E999E10E94B82B882349F08E
:105A300040E350E0BE016F5F7F4F8DE799E10E9428
:105A4000B82B81E0809321060E94D41B90932906F5
:105A50008093280640E350E0BE016F5F7F4F8FE6E2
:105A600099E10E94B82B882369F0CE0101960E942B
:105A7000CD3021E0892B09F420E080911E06281307
:105A800020931E0680912206909123060E94C51B3A
:105A900081319742D8F090918A0480918B049813B9
:105AA00015C00E94D41B909323068093220685E3A1
:105AB0000E941222092E000CAA0BBB0B8093240615
:105AC00090932506A0932606B0932706E096E2E081
:105AD0000C9446306F927F929F92AF92CF92EF924A
